:2000000026C040C03FC03EC03DC08EC23BC03AC039C038C037C036C035C093C3CFC2000001
:200020000000370000000000380001020408102020041008010200000400000000000000CF
:20004000000036000202020202020202020211241FBECFE5D2E0DEBFCDBF10E0A0E6B0E0AF
:20006000E8EDFBE002C005900D92A837B107D9F720E0A8E7B0E001C01D92AA3FB207E1F76A
:20008000BED3A8C5BDCF823081F018F4813051F00895833019F0843009F008958CB58F7DC5
:2000A0008CBD08958AB58F7702C08AB58F7D8ABD08951F93CF93DF93282F30E0F901EC5CF5
:2000C000FF4F8491F901E65DFF4FD491F901EC5BFF4FC491CC23C1F0162F8111D4DFEC2FA4
:2000E000F0E0EE0FFF1FEC5DFF4FA591B4918FB7F894111105C09C91ED2FE095E92302C0BE
:20010000EC91ED2BEC938FBFDF91CF911F910895CF93DF9390E0FC01E65DFF4F2491FC01DC
:20012000EC5BFF4F8491882361F190E0880F991FFC01E25EFF4FC591D491FC01EC5DFF4F7F
:20014000A591B491611109C09FB7F8948881209582238883EC912E230BC0623061F49FB7C3
:20016000F8943881822F809583238883EC912E2B2C939FBF06C08FB7F894E8812E2B2883CB
:200180008FBFDF91CF9108953FB7F8948091B6009091B700A091B800B091B90022B708B609
:2001A00001FE05C02F3F19F00196A11DB11D3FBFBA2FA92F982F8827820F911DA11DB11DE1
:2001C000BC01CD0143E0660F771F881F991F4A95D1F708952FB7F8946091B2007091B300FA
:2001E0008091B4009091B5002FBF0895E091BA00F091BB0090818091BC00809589238083D0
:20020000089520E001972FEF8F3F9207D9F70895CF92DF92EF92FF92CF93DF931092AF00AE
:200220006115710581059105A1F0CFEAD0E02AE0C22ED12CE12CF12CA7019601A9D4605D22
:200240006A93B901CA016115710581059105A1F705C080E38093AE00CEEAD0E0CE01DF91EC
:20026000CF91FF90EF90DF90CF9008958131F8F48093F90020E030E02817C8F44091A4007B
:200280009091A3004917D1F39091A3009F5F9F709093A300E091A300F0E0ED56FF4F908159
:2002A000F901EA53FF4F90832F5F3F4FE5CF0895E091C500F0E0E852FF4F908180919200F7
:2002C0008F5F8F70209191008217E1F3E82FF0E0EF57FF4F90838093920008959091A400ED
:2002E0008091A300981791F09091A4008091A300981730F48091A4009091A300805F04C0B2
:200300008091A4009091A300891B089580E00895CF93DF93C091C300D091C400209749F029
:20032000759B07C0DBDF882321F0FE01DF91CF910994DF91CF910895CF92DF92EF92FF92B3
:20034000CF93DF936B017C011FDFEB01C114D104E104F10479F0DCDF17DF6C1B7D0B683EA3
:200360007340A0F381E0C81AD108E108F108C851DC4FECCFDF91CF91FF90EF90DF90CF908E
:2003800008958091DF00813039F58093EA008091E6008F5F8093E6008091E9008160809328
:2003A000E90061E08091E000B3DE60E08091E00080DE64EF71E080E090E0BEDF61E080919F
:2003C000E00077DE60E08091E000A2DE1092E4008091E1008093E50008952091D6003091E2
:2003E000D7002F5F3F4F3093D7002093D6001092A3001092A40010929100109292008093E2
:200400007E0087B3856087BBC29AC09AB89888EA8DB980EF8EB908950F931F93CF93DF93C4
:20042000082FE4DE84E790E0ECDEC8E0D0E011E0812F802351F0E091BA00F091BB008081D9
:200440009091BC00982B908301C0D0DE80E790E0D8DE110F219761F7E091BA00F091BB0056
:2004600090818091BC00892B808380E790E0C9DE81E090E0DF91CF911F910F9108950F9339
:200480001F93CF938C01C0E0F801EC0FF11D8081882319F0C1DFCF5FF7CFCF911F910F9120
:2004A0000895EDDF8DE0B8DF8AE0B6CF0F931F93CF93DF9308ED10E0C0E0D0E0F801619198
:2004C0008F01CE0157D32196C331D105B9F7DF91CF911F910F910895E8EDF0E08DE996E50F
:2004E000ACE1B8E780839183A283B38381E090E09583848384E1868391E097839087818756
:2005000086E2828782E383871486158616861786108A118A128ACADF68EE73E080E090E09A
:200520000BDFE0E0F0E009941F920F920FB60F9211242F933F938F939F93AF93BF9380912A
:20054000B2009091B300A091B400B091B5003091B10026E0230F2D3720F40296A11DB11DF4
:2005600005C029E8230F0396A11DB11D2093B1008093B2009093B300A093B400B093B50070
:200580008091B6009091B700A091B800B091B9000196A11DB11D8093B6009093B700A093E0
:2005A000B800B093B900BF91AF919F918F913F912F910F900FBE0F901F9018951F920F925E
:2005C0000FB60F9211242F933F934F935F936F937F938F939F93AF93BF93CF93DF93EF93C6
:2005E000FF9380917F00909180008230910509F45FC028F4009761F0019711F18FC0843033
:20060000910509F45EC0C8F0059709F463C086C08FB1882331F08FB1869590917E008913CD
:2006200044C0E0917C00F0917D00309709F00995789B6AC081E090E069C08FB1811135C06F
:20064000C091C300D091C400209749F09091A4008091A300981719F041DEFE010995E09113
:20066000C100F091C200309709F0099590919200809191009817A9F0809191008F5F8F70EC
:2006800080939100E0919100F0E0EF57FF4F80818FB982E090E09093800080937F00B89AAE
:2006A00017C0B8981FB88EE78EB988EA8DB910C083E090E09093800080937F00B8981FB8C9
:2006C0002BC085E090E09093800080937F00B89880E723C08091A4008F5F8F708093A40032
:2006E0009091A4008091A300981307C08091A400815F8F708093A40007C0E091A4008FB1A8
:20070000F0E0ED56FF4F808384E090E09093800080937F001FB8B89A8EE78EB9FF91EF9177
:20072000DF91CF91BF91AF919F918F917F916F915F914F913F912F910F900FBE0F901F90DF
:2007400018951F920F920FB60F9211242F933F934F935F936F937F938F939F93AF93BF939B
:20076000EF93FF931092800010927F00B898B29B2DC0B0992BC08091780090917900A09110
:200780007A00B0917B000196A11DB11D8093780090937900A0937A00B0937B0080917800E5
:2007A00090917900A0917A00B0917B00803A9648A140B105E0F21092780010927900109260
:2007C0007A0010927B0080917E0007DEB09902C088EF01C088EA8DB980EF8EB9FF91EF914D
:2007E000BF91AF919F918F917F916F915F914F913F912F910F900FBE0F901F901895789436
:200800008AB582608ABD8AB581608ABD83B7826083BF83B7816083BF89B7826089BF80B7AD
:20082000826080BF80B7816080BF329A319A3098379A8CB580648CBD61E084E069DC61E077
:2008400084E037DCEEE2F0E0E491E093BC00E8E4F0E0E491F0E0EE0FFF1FEC5DFF4F859134
:2008600094919093BB008093BA0080E790E0C9DC08ED10E0C0E0D0E0CE0174D1F8018193D6
:200880008F012196C331D105B9F78091DC009091DD00019769F48091D8009091D900A091A3
:2008A000DA00B091DB008D399645AC41B84731F068EE73E080E090E03FDD0EDE80E690E03D
:2008C000F0DD60E083E024DC61E084E021DCC12CC7E3D0E00DE210E037E4E32E30E0F32E83
:2008E000FE018491F801B490F701D490DD2071F08111C9DB8D2D90E0880F991F825C9F4F72
:20090000FC01A591B4918C91B82271F4C39464E670E080E090E010DDF4E6FC1508F785E600
:2009200090E0BFDDD9DDDCCF8091E20056DD88E591E09093C2008093C10086E391E0909390
:20094000C4008093C300E4E4F0E0E491F0E0EE0FFF1FE25CFF4F859194919093F800809310
:20096000F70038DCDC01CB0188519C4FAF4FBF4F8093EB009093EC00A093ED00B093EE0095
:2009800029DCDC01CB018C599F4FAF4FBF4F8093BD009093BE00A093BF00B093C000109282
:2009A000E4001092E5001092E900C0E0D0E008E511E096E3E92E91E0F92E8091F900882336
:2009C000A1F08091C600863008F490C08091C600833108F08BC0E091C6008091C700F0E000
:2009E000E852FF4F80831092F900E091F700F091F800808185708530A1F08091F30090918F
:200A0000F400A091F500B091F6000196A11DB11D8093F3009093F400A093F500B093F600E4
:200A200013C08091EF009091F000A091F100B091F2000196A11DB11D8093EF009093F00045
:200A4000A093F100B093F200C5DB8090EB009090EC00A090ED00B090EE0086169706A80664
:200A6000B906F0F5B7DBDC01CB0188519C4FAF4FBF4F8093EB009093EC00A093ED00B09357
:200A8000EE008091D6009091D7008093E7008091E500882321F081508093E50021C080E7CC
:200AA00090E0EDDC6091E40070E080E090E0B0DBE6DC84E790E0E3DC6091D6007091D70082
:200AC00080E090E0A5DBEDDC8091E4008F5F8093E4009091DE00992319F0981708F451DC87
:200AE00017DC209709F469CF8BDA67CF8091C600833829F48091C7008093C50074CF84381E
:200B0000C8F4813811F4E8DC6ECF823870F08091C7008093E20061DC1093C2000093C1007D
:200B2000F092C400E092C3005ECF803809F05BCFBDDC59CF853811F424DC55CF853838F4A2
:200B40001092E6001092E7001092E8004CCF853A09F049CF8091E9008E7F8093E90010926A
:200B6000E40041CFE199FECF9FBB8EBBE09A99278DB30895262FE199FECF1CBA9FBB8EBB6B
:200B80002DBB0FB6F894E29AE19A0FBE01960895A1E21A2EAA1BBB1BFD010DC0AA1FBB1F50
:200BA000EE1FFF1FA217B307E407F50720F0A21BB30BE40BF50B661F771F881F991F1A940E
:200BC00069F760957095809590959B01AC01BD01CF010895F894FFCF426F6F740048617204
:100BE0006420526573657400524320002049200040
:00000001FF
