:2000000026C040C03FC03EC03DC049C23BC03AC039C038C037C036C035C047C38AC20000D7
:200020000000360000000000370000000000380002020202020202020202010204081020C8
:20004000200410080102000004000000000011241FBECFE5D2E0DEBFCDBF10E0A0E6B0E0B6
:20006000EAEEFBE002C005900D92A837B107D9F720E0A8E7B0E001C01D92A43FB207E1F76D
:2000800072D3B1C5BDCF823089F018F4813051F00895833019F0843009F008958CB58F7D00
:2000A0008CBD08958AB58F778ABD08958AB58F7DFBCF1F93CF93DF93282F30E0F901EC5BEE
:2000C000FF4F8491F901E65CFF4FD491F901E05DFF4FC491CC23A1F0162F8111D4DFEC2FCF
:2000E000F0E0EE0FFF1FE65DFF4FA591B4918FB7F894EC91111108C0D095DE23DC938FBFAD
:20010000DF91CF911F910895DE2BF8CFCF93DF9390E0FC01E65CFF4F2491805D9F4FFC01A4
:2001200084918823D1F090E0880F991FFC01EC5DFF4FA591B491FC01E65DFF4FC591D49127
:2001400061110EC09FB7F8948C91E22FE0958E238C932881E223E8839FBFDF91CF91089526
:200160008FB7F894EC91E22BEC938FBFF6CF3FB7F8948091F0009091F100A091F200B09198
:20018000F30022B708B601FE05C02F3F19F00196A11DB11D3FBFBA2FA92F982F8827BC0185
:2001A000CD01620F711D811D911D46E0660F771F881F991F4A95D1F7089590918D00809193
:2001C0008C00981791F090918D0080918C00981738F480918D0090918C00805F891B0895D2
:2001E00080918D0090918C00F9CF80E008952091BB003091BC002F5F3F4F3093BC002093B8
:20020000BB0010928C0010928D0010929E0010929F008093A00087B3856087BBC29AC09A7B
:20022000B89888EA8DB980EF8EB90895CF93DF93C091A800D091A900209749F0759B07C0C5
:20024000BCDF882321F0FE01DF91CF910994DF91CF910895CF92DF92EF92FF92CF93DF93B6
:200260006B017C0184DFEB01E1DF81DF6C1B7D0B683E7340C8F381E0C81AD108E108F10805
:20028000C851DC4FC114D104E104F10469F7DF91CF91FF90EF90DF90CF900895E091A300D9
:2002A000F091A40090818091A500809589238083089520E001972FEF8F3F9207D9F7089567
:2002C0008131F8F48093EA0030E020E02817C8F440918D0090918C004917D1F390918C009C
:2002E0009F5F9F7090938C00E0918C00F0E0E458FF4F9081F901E555FF4F90832F5F3F4F29
:20030000E5CF0895E091AA00F0E0E753FF4F908180919F008F5F8F7020919E008217E1F3AF
:20032000E82FF0E0E257FF4F908380939F0008958091D000813039F58093DB008091D70057
:200340008F5F8093D7008091DA0081608093DA0061E08091D100DADE60E08091D100A9DE88
:2003600064EF71E080E090E075DF61E08091D100A0DE60E08091D100C9DE1092D5008091C3
:20038000D2008093D6000895DF92EF92FF920F931F93CF93DF93D82E81DF84E790E089DFB1
:2003A00088E0E82EF12C01E0C091A300D091A4001091A5008D2D8023D9F08881812B88839C
:2003C00080E790E076DF000F81E0E81AF10861F78881182B188380E790E06BDF81E090E055
:2003E000DF91CF911F910F91FF90EF90DF90089555DFE6CF0F931F93CF938C01C0E0F801FE
:20040000EC0FF11D8081882319F0BEDFCF5FF7CFCF911F910F910895EDDF8DE0B5DF8AE009
:20042000B3CF0F931F93CF93DF9309EC10E0D0E0C0E0F80161918F01CE01A5D32196C33170
:20044000D105B9F7DF91CF911F910F910895E9ECF0E08DE996E5ACE1B8E780839183A2835B
:20046000B38381E090E09583848384E1868391E097839087818786E2828782E383871486C4
:20048000158616861786108A118A128ACADF68EE73E080E090E0DEDEF0E0E0E009941F92FB
:2004A0000F920FB60F9211242F933F938F939F93AF93BF938091EC009091ED00A091EE005A
:2004C000B091EF003091EB0020E3230F2D3758F54096A11DB11D2093EB008093EC00909338
:2004E000ED00A093EE00B093EF008091F0009091F100A091F200B091F3000196A11DB11D2F
:200500008093F0009093F100A093F200B093F300BF91AF919F918F913F912F910F900FBE8D
:200520000F901F90189523EB230F4196A11DB11DD2CF1F920F920FB60F9211242F933F93FB
:200540004F935F936F937F938F939F93AF93BF93CF93DF93EF93FF938091A1009091A2006E
:200560008230910509F487C0C0F4009791F1019709F449C0FF91EF91DF91CF91BF91AF9114
:200580009F918F917F916F915F914F913F912F910F900FBE0F901F9018958430910509F4ED
:2005A00074C058F1059731F780918D008F5F8F7080938D0090918D0080918C0098136DC0AC
:2005C00080918D00815F8F7080938D0084E090E00DC08FB1882331F08FB186959091A00035
:2005E00089130EC0789BF2CF81E090E09093A2008093A1001FB8B89A46C08FB1882319F050
:2006000088EA8DB930C0C091A800D091A900209749F090918D0080918C00981719F0CDDD92
:20062000FE010995E091A600F091A700309709F0099590919F0080919E009817B9F08091A8
:200640009E008F5F8F7080939E00E0919E00F0E0E257FF4F80818FB982E090E09093A20018
:200660008093A100B89A80E78EB984CFB8981FB88EE78EB9C5CF83E090E09093A200809351
:20068000A100B8981FB88EE7EFCF85E090E09093A2008093A100B898E6CFE0918D008FB1CE
:2006A000F0E0E458FF4F808391CF1F920F920FB60F9211242F933F934F935F936F937F9314
:2006C0008F939F93AF93BF93EF93FF931092A2001092A100B898B29B2DC0B0992BC08091C8
:2006E000780090917900A0917A00B0917B000196A11DB11D8093780090937900A0937A008A
:20070000B0937B008091780090917900A0917A00B0917B00803A9648A140B105E0F21092EE
:2007200078001092790010927A0010927B008091A0005DDDB09915C088EF8DB980EF8EB971
:20074000FF91EF91BF91AF919F918F917F916F915F914F913F912F910F900FBE0F901F907F
:20076000189588EAEACF78948AB582608ABD8AB581608ABD83B7826083BF83B7816083BF0B
:2007800089B7826089BF80B7826080BF3298319A309A379A8CB580648CBD61E084E0B6DCC2
:2007A00061E084E086DCEEE3F0E0E491E093A500E4E3F0E0E491F0E0EE0FFF1FE65DFF4F7C
:2007C000859194919093A4008093A30080E790E070DD09EC10E0D0E0C0E0CE01CCD1F801A3
:2007E00081938F012196C331D105B9F78091CD009091CE00019769F48091C9009091CA009D
:20080000A091CB00B091CC008D399645AC41B84731F068EE73E080E090E01CDD18DE80E653
:2008200090E0FADD60E083E071DC61E084E06EDCC12CC7E4D0E00DE310E063E3E62E60E0D0
:20084000F62EFE018491F801B490F701D490DD2009F4DCC0811117DCED2DF0E0EE0FFF1FA7
:20086000E25EFF4FA591B4918C91B82209F4CEC08091D300BCDC82E891E09093A7008093B9
:20088000A60080E691E09093A9008093A800E0E3F0E0E491F0E0EE0FFF1FE25EFF4F8591BD
:2008A00094919093E9008093E8002FB7F8948091EC009091ED00A091EE00B091EF002FBF52
:2008C00088519C4FAF4FBF4F8093DC009093DD00A093DE00B093DF008FB7F8944091EC0097
:2008E0005091ED006091EE007091EF008FBF1092D5001092D6001092DA009AE0892E912CB4
:20090000A12CB12C00E010E022E8E22E21E0F22E30E6C32E31E0D32E40E3742E8091EA0049
:200920008823A1F08091AB00863008F47EC08091AB00833108F079C0E091AB008091AC0055
:20094000F0E0E753FF4F80831092EA00E091E800F091E90080818570853009F49FC08091D5
:20096000E4009091E500A091E600B091E7000196A11DB11D8093E4009093E500A093E60013
:20098000B093E7002FB7F8948091EC009091ED00A091EE00B091EF002FBF4091DC005091E5
:2009A000DD006091DE007091DF00481759076A077B0728F52FB7F8948091EC009091ED005F
:2009C000A091EE00B091EF002FBF88519C4FAF4FBF4F8093DC009093DD00A093DE00B093C7
:2009E000DF008091BB009091BC008093D8008091D600882309F466C081508093D60016DC23
:200A00000115110509F48ACFFBDA88CFC39464E670E080E090E01EDCF4E6FC1508F011CFAA
:200A200085E690E0F9DC13DD0CCF8091AB00833839F140F48138A1F0A8F4803809F084CF7C
:200A4000F0DC82CF853841F100F1853A09F07CCF8091DA008E7F8093DA001092D50074CFF7
:200A6000F6DC72CF8091AC008093D300C0DBF092A700E092A600D092A900C092A80064CFAC
:200A80008091AC008093AA005FCF1092D7001092D8001092D90058CF4BDC56CF8091E000DC
:200AA0009091E100A091E200B091E3000196A11DB11D8093E0009093E100A093E200B0938B
:200AC000E30060CF80E790E095DC6091D50070E090E080E01092C700611571058105910565
:200AE00009F43FC0C7ECD0E0A50194015AD0605D6A93B901CA016115710581059105A1F753
:200B0000CE0178DC84E790E075DC6091BB007091BC0090E080E01092C70061157105810572
:200B2000910521F1C7ECD0E0A50194013AD0605D6A93B901CA016115710581059105A1F786
:200B4000CE016ADC8091D5008F5F8093D5009091CF00992309F453CF981708F050CFE8DB70
:200B60004ECF7092C600C6ECD0E0CACF7092C600C6ECD0E0E5CFE199FECF9FBB8EBBE09A53
:200B800099278DB30895262FE199FECF1CBA9FBB8EBB2DBB0FB6F894E29AE19A0FBE01960F
:200BA0000895A1E21A2EAA1BBB1BFD010DC0AA1FBB1FEE1FFF1FA217B307E407F50720F02F
:200BC000A21BB30BE40BF50B661F771F881F991F1A9469F760957095809590959B01AC01A6
:200BE000BD01CF010895F894FFCF426F6F740048617264205265736574005243200020491C
:020C00002000D2
:00000001FF
